S00C00004F4C45442E73726563F4
S11300000C94B4010C94D1010C94D1010C94D10141
S11300100C94D1010C94D1010C94D1010C94D10114
S11300200C94D1010C94D1010C94D1010C94D10104
S11300300C94D1010C94D1010C94D1010C94D101F4
S11300400C94D1010C94D1010C94D1010C94D101E4
S11300500C94D1010C94D1010C94D1010C94D101D4
S11300600C94D1010C94D1010C94D1010C94D101C4
S1130070000000000000000000065F5F06000000B2
S11300800007070007070000147F7F147F7F140018
S1130090242E6B6B3A120000466630180C66620020
S11300A0307A4F5D377A48000407030000000000EF
S11300B0001C3E63410000000041633E1C00000040
S11300C0082A3E1C1C3E2A0808083E3E0808000078
S11300D000A0E0600000000008080808080800000C
S11300E000006060000000006030180C060301008E
S11300F03E7F594D7F3E000042427F7F40400000DA
S1130100627359496F660000226349497F360000D3
S1130110181C16137F7F1000276745457D390000A2
S11301203C7E4B4979300000036371190F070000CE
S1130130367F49497F360000064F49693F1E00005B
S113014000006C6C0000000000A0EC6C00000000DB
S1130150081C366341000000141414141414000025
S1130160004163361C080000020351590F060000C9
S11301703E7F415D5D1F1E007C7E13137E7C00006C
S1130180417F7F49497F36001C3E63414163220021
S1130190417F7F41637F1C00417F7F495D41630054
S11301A0417F7F491D0103001C3E6341517372006E
S11301B07F7F08087F7F000000417F7F41000000AF
S11301C0307040417F3F0100417F7F081C7763000E
S11301D0417F7F41406070007F7F060C067F7F0077
S11301E07F7F060C187F7F001C3E6341633E1C002A
S11301F0417F7F49090F06001E3F21717F5E000089
S1130200417F7F19396F460026674D597B320000C4
S113021003417F7F410300007F7F40407F7F0000D8
S11302201F3F60603F1F00007F7F3018307F7F00DA
S113023063771C081C776300074F78784F0700002A
S11302406773594D47637100007F7F41410000008F
S11302500103060C183060000041417F7F0000005C
S1130260080C0603060C0800808080808080808053
S11302700000030704000000207454543C7840003C
S1130280413F7F44447C3800387C44446C2800005F
S1130290307848493F7F4000387C54545C18000053
S11302A0487E7F490302000098BCA4A4F87C0400A3
S11302B0417F7F08047C780000447D7D400000007D
S11302C040C484FD7D000000417F7F10386C4400F1
S11302D000417F7F400000007C7C0C180C7C78007F
S11302E07C7C04047C780000387C44447C38000026
S11302F084FCF8A4243C1800183C24A4F8FC8400D2
S1130300447C78441C180000485C54547424000055
S113031000043E7F442400003C7C40403C7C400080
S11303201C3C60603C1C00003C7C6030607C3C00F9
S1130330446C3810386C44009CBCA0A0FC7C0000C9
S11303404C64745C4C64000008083E774141000032
S113035000000077770000004141773E0808000064
S1130360020301030203010011241FBECFEFD4E0F6
S1130370DEBFCDBF11E0A0E0B1E0ECE0F4E102C0EB
S113038005900D92AE3BB107D9F721E0AEEBB1E099
S113039001C01D92AC3CB207E1F70E9458020C94D4
S11303A0040A0C940000BF92CF92DF92EF92FF9266
S11303B00F931F93CF93DF93CDB7DEB72B970FB671
S11303C0F894DEBF0FBECDBFB82EC982DA82EB82AD
S11303D0FC820D831E832F83388749875A876B8756
S11303E06E2D85E30E943D03698182E30E943D03F3
S11303F060E081E30E943D038B2D90E00E94230581
S113040000E010E00DC0E4E0F0E0EC0FFD1FE00FB1
S1130410F11F608186E3800F0E943D030F5F1F4F31
S11304208E2D90E00817190774F380E090E00E9485
S11304306B032B960FB6F894DEBF0FBECDBFDF91D2
S1130440CF911F910F91FF90EF90DF90CF90BF90CD
S1130450089591E0823D08F490E0892F089591E099
S1130460813508F090E0892F0895E0E0F4E184E01C
S1130470808382E48A95F1F700C060817091011451
S11304809091021480E0089580E885BF80E280BFE7
S113049008958EB588608EBD1BBC1ABC8EB5816074
S11304A08EBD8FB580648FBD81B3806281BB08959A
S11304B0CF93DF93CDB7DEB72B970FB6F894DEBF9B
S11304C00FBECDBF0E9429040E9431040E9449023C
S11304D08FE190E00E9432050E9444020E943203A0
S11304E080E80E948A0380EE90E09A83898383E007
S11304F08B830E9435026C830E9435027D830E94A7
S113050035029E8363E08AE20E943D0360EB89E248
S11305100E943D0365E088E20E943D0380E00E9462
S11305208A038091C0019091C1010E94740480915A
S1130530BE019091BF01009709F046C00E943502A8
S1130540872F0E942902882371F08091C001909125
S1130550C101181619063CF401979093C1018093C8
S1130560C0010E9474040E943502872F0E942F024A
S1130570882371F08091C0019091C101823091056E
S11305803CF401969093C1018093C0010E947404CD
S11305900E9435029B3070F48091C0019091C1019A
S11305A0892B41F481E090E09093BF018093BE01D8
S11305B00E9405052FE38DE093E021508040904098
S11305C0E1F700C0000019C00197B9F40E94350298
S11305D06C837D839E83C980DA80EB80F62E072F9F
S11305E0192F2F81388549855A856B8581E30E94AF
S11305F0D3018AE091E00E94E9068091C1018F93C2
S11306008091C0018F9389E191E09F938F930E9421
S1130610D3068091BF018F938091BE018F938DE2A9
S113062091E09F938F930E94D3068E811F928F93A4
S11306308DE391E09F938F930E94D30687E893E123
S11306400197F1F700C000000FB6F894DEBF0FBEAB
S1130650CDBF6DCF0E94180580EC0E9423050E9437
S1130660140508950E941C050E942A038FEF9FE23F
S11306700197F1F700C000000895CF93DF93D82FBE
S1130680C62F0E94180582E00E9423058D2F0E9428
S113069023058C2F0E9423050E941405DF91CF911E
S11306A008951F93CF93DF93182FD62FC42F0E9442
S11306B0180585E00E942305812F0E9423058D2FB4
S11306C00E9423058C2F0E9423050E941405DF91AC
S11306D0CF911F910895CF93DF93EC010E941805E9
S11306E0CE0163E070E00E943F05009739F081304D
S11306F0910531F0029731F081E805C081E803C02B
S113070082E801C084E80E9423050E941405DF9159
S1130710CF910895482F60EE8FE00E945103089511
S1130720E0910801F091090180830895E0910601A8
S1130730F09107018083089580550E9490030895E5
S1130740CF93DF93EC018F709078992324F4019771
S1130750806F9F6F01960E949003CE01DD230CF4FD
S11307600F969595879595958795959587959595E4
S11307708795805F0E949003DF91CF910895CF9376
S1130780DF93EB010E949C03CE010E94A003DF9142
S1130790CF9108951F93CF93DF9310EE180FC0E00D
S11307A0D0E010C0E12FF0E0EE0FFF1FEE0FFF1FAF
S11307B0EE0FFF1FEC0FFD1FE059FF4F84910E94C5
S11307C096032196C830D1056CF3DF91CF911F9128
S11307D008950F931F93CF93DF938C01C0E0D0E073
S11307E007C0F801EC0FFD1F80810E94CA03219607
S11307F0F80101900020E9F73197E01BF10BCE17C7
S1130800DF0778F3DF91CF911F910F9108950F9334
S11308101F93CF93DF9300E010E013C0C8010E9440
S11308209C0380E090E00E94A003C0E0D0E004C0FC
S113083080E00E9496032196C038D105CCF30F5F67
S11308401F4F0830110554F3DF91CF911F910F9181
S1130850089580E885BF80B780BF80B7806280BF7D
S113086008958EEA0E94900381EA0E9490038AED23
S11308700E94900382E10E94900388EC0E949003FE
S113088088EA0E9490038FE30E94900385ED0E9402
S1130890900380E80E94900381E80E94900380E521
S11308A00E94900389ED0E94900381E20E949003CC
S11308B080E20E94900382E00E9490038BED0E94EC
S11308C0900380E30E9490038DEA0E94900380E0ED
S11308D00E94900384EA0E94900386EA0E94900397
S11308E08FEA0E9490030895CF93DF93EC01892B44
S11308F061F50E94070481E090E00E949C0380E07F
S113090090E00E94A00380E591E00E94E90360E08A
S113091070E082E090E00E94BF0385E591E00E94D0
S1130920E90360E070E083E090E00E94BF0383E6A7
S113093091E00E94E90360E070E084E090E00E94AE
S1130940BF038FE691E00E94E903C130D10561F550
S11309500E94070481E090E00E949C0380E090E004
S11309600E94A00380E591E00E94E90360E070E04A
S113097082E090E00E94BF038BE791E00E94E903CC
S113098060E070E083E090E00E94BF0388E891E0BB
S11309900E94E90360E070E084E090E00E94BF03FD
S11309A08FE691E00E94E903229761F50E94070413
S11309B081E090E00E949C0380E090E00E94A0030C
S11309C080E591E00E94E90360E070E082E090E05D
S11309D00E94BF038BE791E00E94E90360E070E0AE
S11309E083E090E00E94BF0386E991E00E94E9035E
S11309F060E070E084E090E00E94BF0383EA91E04D
S1130A000E94E903DF91CF9108950E94070481E0D9
S1130A1090E00E949C0380E090E00E94A00381EBA0
S1130A2091E00E94E903089588B3806188BB08952A
S1130A3088B38F7E88BB089580EB87BB81E58DB931
S1130A400E94140508958FB9779BFECF08955D9B8E
S1130A50FECF8CB980E090E008955F9BFECF8CB10F
S1130A6090E0089590BD89B988E18AB98EE880BD87
S1130A706DE275E087E295E00E948806089597FB91
S1130A80072E16F4009407D077FD09D00E94530571
S1130A9007FC05D03EF4909581959F4F089570957D
S1130AA061957F4F0895AA1BBB1B51E107C0AA1F84
S1130AB0BB1FA617B70710F0A61BB70B881F991FFB
S1130AC05A95A9F780959095BC01CD0108950F938F
S1130AD01F93CF93DF938230910510F482E090E06E
S1130AE0E091C401F091C50120E030E0A0E0B0E065
S1130AF0309719F1408151810281138148175907B8
S1130B00C8F08417950769F4109731F012960C9386
S1130B10129713961C9327C00093C4011093C50128
S1130B2022C02115310519F04217530718F49A0110
S1130B30BD01EF01DF01F801DBCF21153105F9F02B
S1130B40281B390B2430310580F48A819B8161157F
S1130B50710521F0FB019383828304C09093C50146
S1130B608093C401FE01329644C0FE01E20FF31FDC
S1130B708193919322503109398328833AC020917B
S1130B80C2013091C301232B41F420910201309121
S1130B9003013093C3012093C201209100013091DD
S1130BA001012115310541F42DB73EB740910401EF
S1130BB050910501241B350BE091C201F091C30152
S1130BC0E217F307A0F42E1B3F0B2817390778F020
S1130BD0AC014E5F5F4F2417350748F04E0F5F1F7F
S1130BE05093C3014093C2018193919302C0E0E00A
S1130BF0F0E0CF01DF91CF911F910F910895CF9332
S1130C00DF93009709F481C0FC01329713821282AA
S1130C10A091C401B091C501109781F42081318164
S1130C20820F931F2091C2013091C3012817390705
S1130C3051F5F093C301E093C20167C0ED0120E0D8
S1130C4030E0CE17DF0740F44A815B819E014115F5
S1130C505105F1F0EA01F5CFD383C283408151817C
S1130C60840F951FC817D90759F488819981840F77
S1130C70951F0296918380838A819B8193838283CB
S1130C802115310529F4F093C501E093C4013DC059
S1130C90E901FB83EA8349915991C40FD51FEC17ED
S1130CA0FD0761F480819181840F951F0296E9010B
S1130CB099838883828193819B838A83E0E0F0E037
S1130CC012968D919C911397009719F0FD01DC0108
S1130CD0F7CF8D919C9111979D012E5F3F4F820F0D
S1130CE0931F2091C2013091C3012817390769F479
S1130CF0309729F41092C5011092C40102C01382E6
S1130D001282B093C301A093C201DF91CF910895E1
S1130D100F931F93CF93DF93009731F461157105FF
S1130D2019F480E090E03AC08B01EC016EE070E0D1
S1130D3081E090E00E94FA08FC01892B91F380E89D
S1130D4083830115110571F01387028781E883837A
S1130D508091C6019091C701892B21F4F093C701BA
S1130D60E093C6012097C9F0D187C0878381826050
S1130D7083838091C8019091C901892B71F4F09308
S1130D80C901E093C8018091CA019091CB01892BDC
S1130D9021F4F093CB01E093CA01CF01DF91CF910D
S1130DA01F910F910895A0E0B0E0E9EDF6E00C94F6
S1130DB0DD09AE014B5F5F4FFA0161917191AF01A3
S1130DC08091C8019091C9010E941907E2E00C9436
S1130DD0F9090F931F93CF93DF93E091C801F0912A
S1130DE0C901238121FF1BC08C01D0E0C0E0F801C0
S1130DF081918F016091C8017091C901DB0118963E
S1130E00ED91FC911997882331F00995892B79F399
S1130E10DFEFCFEFECCF8AE00995892B19F08FEF44
S1130E209FEF02C08D2F9C2FDF91CF911F910F91C7
S1130E300895ABE0B0E0EFE1F7E00C94CD096C016C
S1130E407B018A01FC0117821682838181FFCCC158
S1130E50CE0101963C01F6019381F70193FD859142
S1130E6093FF81917F01882309F4BAC1853239F453
S1130E7093FD859193FF81917F01853229F4B60119
S1130E8090E00E943309E7CF912C212C312CFFE113
S1130E90F315D8F08B3279F038F4803279F083325C
S1130EA0A1F4232D20611DC08D3261F0803369F4DB
S1130EB0232D216016C0832D8260382EE32DE4603B
S1130EC03E2E2AC0F32DF8601DC037FC2DC020ED46
S1130ED0280F2A3040F08E32B9F436FC81C1232D1C
S1130EE02064322E19C036FE06C08AE0989E200D7A
S1130EF01124922E11C0EAE02E9E200D1124222EE0
S1130F00F32DF0623F2E08C08C3621F4832D8068C7
S1130F10382E02C0883641F4F70193FD859193FF82
S1130F2081917F018111B3CF982F9F7D9554933088
S1130F3028F40C5F1F4F9FE399830DC0833631F073
S1130F40833771F0833509F059C021C0F8018081DD
S1130F5089830E5F1F4F88248394912C530113C0FF
S1130F602801F2E04F0E511CF801A080B18036FE3A
S1130F7003C0692D70E002C06FEF7FEFC5010E94CE
S1130F8028094C018201F32DFF773F2E16C028015A
S1130F9022E0420E511CF801A080B18036FE03C04D
S1130FA0692D70E002C06FEF7FEFC5010E94160942
S1130FB04C01F32DF0683F2E820133FC1BC0822DBF
S1130FC090E088169906B0F4B60180E290E00E94A1
S1130FD033092A94F4CFF50137FC859137FE8191CA
S1130FE05F01B60190E00E94330921102A9421E0A8
S1130FF0821A91088114910471F7E8C0843611F0C3
S1131000893641F5F80137FE07C06081718182811C
S113101093810C5F1F4F08C060817181072E000C03
S1131020880B990B0E5F1F4FF32DFF763F2E97FF12
S113103009C090958095709561957F4F8F4F9F4F14
S1131040F0683F2E2AE030E0A3010E946F09882E49
S1131050861845C0853731F4232D2F7EB22E2AE021
S113106030E025C0932D997FB92E8F36C1F018F446
S1131070883579F0B5C0803719F0883721F0B0C0D1
S1131080E92FE061BE2EB4FE0DC0FB2DF460BF2E2F
S113109009C034FE0AC0292F2660B22E06C028E0FB
S11310A030E005C020E130E002C020E132E0F80188
S11310B0B7FE07C060817181828193810C5F1F4FED
S11310C006C06081718180E090E00E5F1F4FA30134
S11310D00E946F09882E8618FB2DFF773F2E36FE5F
S11310E00DC0232D2E7FA22E891458F434FE0BC07C
S11310F032FC09C0832D8E7EA82E05C0B82CA32CEB
S113110003C0B82C01C0B92CA4FE0FC0FE01E80D29
S1131110F11D8081803321F49A2D997EA92E09C076
S1131120A2FE06C0B394B39404C08A2D867809F055
S1131130B394A3FC11C0A0FE06C0B21488F4280C1A
S1131140922C9B180EC0B21460F4B60180E290E0B9
S11311500E943309B394F7CFB21418F42B1802C0C9
S1131160982C212CA4FE10C0B60180E390E00E94CC
S11311703309A2FE17C0A1FC03C088E790E002C0B7
S113118088E590E0B6010CC08A2D867859F0A1FE5E
S113119002C08BE201C080E2A7FC8DE2B60190E0C0
S11311A00E943309891438F4B60180E390E00E9468
S11311B033099A94F7CF8A94F301E80DF11D8081E5
S11311C0B60190E00E9433098110F5CF222009F482
S11311D042CEB60180E290E00E9433092A94F6CF11
S11311E0F6018681978102C08FEF9FEF2B96E2E193
S11311F00C94E9090F931F93CF93DF93869F80018B
S1131200879F100D969F100D1124C8010E94670539
S1131210EC01009729F0A80160E070E00E94210928
S1131220CE01DF91CF911F910F910895FC0105909C
S1131230615070400110D8F7809590958E0F9F1FD4
S11312400895DC0101C06D9341505040E0F70895CA
S1131250FC016150704001900110D8F78095909581
S11312608E0F9F1F08950F931F93CF93DF93FB015E
S1131270238121FD03C08FEF9FEF2CC022FF16C0F6
S113128046815781248135814217530744F4A08154
S1131290B1819D012F5F3F4F318320838C93268141
S11312A037812F5F3F4F3783268314C08B01EC01B6
S11312B0FB010084F185E02D0995892BE1F6D80125
S11312C016968D919C911797019617969C938E93E1
S11312D01697CE01DF91CF911F910F910895FA01D6
S11312E0AA27283051F1203181F1E8946F936E7F61
S11312F06E5F7F4F8F4F9F4FAF4FB1E03ED0B4E052
S11313003CD0670F781F891F9A1FA11D680F791F92
S11313108A1F911DA11D6A0F711D811D911DA11DA3
S113132020D009F468943F912AE0269F11243019B3
S1131330305D3193DEF6CF010895462F4770405D4E
S11313404193B3E00FD0C9F7F6CF462F4F70405DFD
S11313504A3318F0495D31FD4052419302D0A9F758
S1131360EACFB4E0A6959795879577956795BA9552
S1131370C9F700976105710508959B01AC010A2E18
S113138006945795479537952795BA95C9F7620FEF
S1131390731F841F951FA01D08952F923F924F9293
S11313A05F926F927F928F929F92AF92BF92CF92F1
S11313B0DF92EF92FF920F931F93CF93DF93CDB7FA
S11313C0DEB7CA1BDB0B0FB6F894DEBF0FBECDBF72
S11313D009942A88398848885F846E847D848C8443
S11313E09B84AA84B984C884DF80EE80FD800C814C
S11313F01B81AA81B981CE0FD11D0FB6F894DEBF2F
S10F14000FBECDBFED010895F894FFCF9E
S113140C0000CC0120000012001073656E64696E3C
S113141C672063616E3A200D006D656E7520706FE8
S113142C736974696F6E3A2025640D0A00736B69D5
S113143C70206D656E753A2025640D0A006A6F790B
S113144C5F627574746F6D3A2025640D0A200A006E
S113145C4D454E55002053746172742067616D655F
S113146C202A00204869676873636F7265730020D3
S113147C53657474696E6773202000205374617211
S113148C742067616D652000204869676873636F19
S113149C726573202A00204869676873636F7265EC
S11314AC7320002053657474696E67732020202A9E
S11114BC00504C4159494E472050494E4700BC
S9030000FC
