S00C00004F4C45442E73726563F4
S11300000C9438000C9455000C9455000C94550035
S11300100C9455000C9455000C9455000C94550008
S11300200C9455000C9455000C9455000C945500F8
S11300300C9455000C9455000C9455000C945500E8
S11300400C9455000C9455000C9455000C945500D8
S11300500C9455000C9455000C9455000C945500C8
S11300600C9455000C9455000C9455000C945500B8
S113007011241FBECFEFD4E0DEBFCDBF11E0A0E05E
S1130080B1E0E6EBFDE002C005900D92A436B107A5
S1130090D9F721E0A4E6B1E001C01D92AE36B20763
S11300A0E1F70E94D0000C94D9060C940000BF9292
S11300B0CF92DF92EF92FF920F931F93CF93DF9330
S11300C0CDB7DEB72B970FB6F894DEBF0FBECDBF0A
S11300D0B82EC982DA82EB82FC820D831E832F83C1
S11300E0388749875A876B876E2D85E30E946F0195
S11300F0698182E30E946F0160E081E30E946F01E5
S11301008B2D90E00E94220200E010E00DC0E4E09C
S1130110F0E0EC0FFD1FE00FF11F608186E3800F1C
S11301200E946F010F5F1F4F8E2D90E00817190773
S113013074F380E090E00E949D012B960FB6F89432
S1130140DEBF0FBECDBFDF91CF911F910F91FF9006
S1130150EF90DF90CF90BF900895E0E0F4E184E069
S1130160808382E48A95F1F700C060817091011464
S11301709091021480E0089580E885BF80E280BFFA
S113018008958EB588608EBD1BBC1ABC8EB5816087
S11301908EBD8FB580648FBD81B3806281BB0895AD
S11301A0CF93DF93CDB7DEB72B970FB6F894DEBFAE
S11301B00FBECDBF0E94C8010E94D0010E94C100A1
S11301C08FE190E00E9437020E94BC000E9442012D
S11301D080E80E94BC0180EE90E09A83898383E0EA
S11301E08B830E94AD000E94AD000E94AD0063E0CD
S11301F08AE20E946F0160EB89E20E946F0165E070
S113020088E20E946F0180E00E94BC0188E091E0D6
S11302109F938F930E94D8030F900F900E94AD007C
S11302206C837D839E83C980DA80EB80F62E072F52
S1130230192F2F81388549855A856B8581E30E9462
S1130240570087E893E10197F1F700C00000E6CF7B
S11302500E94170280EC0E9422020E941302089559
S1130260CF93C82F0E94170283E00E9422028C2F92
S11302700E9422020E942602C82F0E9413028C2F81
S1130280CF910895CF930E941B020E9428018FEF03
S11302909FE20197F1F700C000008EE00E94300158
S11302A0C82F1F928F938EE091E09F938F930E94AB
S11302B0D8038C2F807E0F900F900F900F90803872
S11302C061F01F92CF9381E291E09F938F930E94FC
S11302D0D8030F900F900F900F90CF910895CF9364
S11302E0DF93D82FC62F0E94170282E00E942202B9
S11302F08D2F0E9422028C2F0E9422020E94130240
S1130300DF91CF9108951F93CF93DF93182FD62FAA
S1130310C42F0E94170285E00E942202812F0E94AE
S113032022028D2F0E9422028C2F0E9422020E9400
S11303301302DF91CF911F910895CF93DF93EC01C6
S11303400E941702CE0163E070E00E94440200970D
S113035039F08130910531F0029731F081E805C020
S113036081E803C082E801C084E80E9422020E945E
S11303701302DF91CF910895482F60EE8FE00E9421
S113038083010895E0910601F091070180830895A7
S113039080E885BF80B780BF80B7806280BF089542
S11303A08EEA0E94C20181EA0E94C2018AED0E9483
S11303B0C20182E10E94C20188EC0E94C20188EA63
S11303C00E94C2018FE30E94C20185ED0E94C20116
S11303D080E80E94C20181E80E94C20180E50E9477
S11303E0C20189ED0E94C20181E20E94C20180E241
S11303F00E94C20182E00E94C2018BED0E94C201F0
S113040080E30E94C2018DEA0E94C20180E00E9442
S1130410C20184EA0E94C20186EA0E94C2018FEAF4
S11304200E94C201089588B3806188BB089588B38F
S11304308F7E88BB089580EB87BB81E58DB90E94D0
S1130440130208958FB9779BFECF08958FEF8FB96C
S1130450779BFECF8FB108955D9BFECF8CB980E072
S113046090E008955F9BFECF8CB190E0089590BD1D
S113047089B988E18AB98EE880BD62E372E08CE2D2
S113048092E00E948D03089597FB072E16F40094C2
S113049007D077FD09D00E94580207FC05D03EF42E
S11304A0909581959F4F0895709561957F4F08951C
S11304B0AA1BBB1B51E107C0AA1FBB1FA617B70786
S11304C010F0A61BB70B881F991F5A95A9F78095A2
S11304D09095BC01CD0108950F931F93CF93DF93A3
S11304E08230910510F482E090E0E0916601F09191
S11304F0670120E030E0A0E0B0E0309719F14081DE
S113050051810281138148175907C8F08417950750
S113051069F4109731F012960C93129713961C936A
S113052027C0009366011093670122C0211531058D
S113053019F04217530718F49A01BD01EF01DF01C6
S1130540F801DBCF21153105F9F0281B390B2430D4
S1130550310580F48A819B816115710521F0FB01CD
S11305609383828304C09093670180936601FE01A4
S1130570329644C0FE01E20FF31F819391932250FF
S11305803109398328833AC020916401309165018F
S1130590232B41F420910201309103013093650132
S11305A0209364012091000130910101211531054E
S11305B041F42DB73EB74091040150910501241B2D
S11305C0350BE0916401F0916501E217F307A0F4A3
S11305D02E1B3F0B2817390778F0AC014E5F5F4F95
S11305E02417350748F04E0F5F1F50936501409361
S11305F064018193919302C0E0E0F0E0CF01DF91C8
S1130600CF911F910F910895CF93DF93009709F431
S113061081C0FC01329713821282A0916601B091CD
S11306206701109781F420813181820F931F2091FB
S11306306401309165012817390751F5F09365017C
S1130640E093640167C0ED0120E030E0CE17DF07DE
S113065040F44A815B819E0141155105F1F0EA01A4
S1130660F5CFD383C28340815181840F951FC8176E
S1130670D90759F488819981840F951F0296918333
S113068080838A819B81938382832115310529F498
S1130690F0936701E09366013DC0E901FB83EA83BF
S11306A049915991C40FD51FEC17FD0761F480815E
S11306B09181840F951F0296E90199838883828131
S11306C093819B838A83E0E0F0E012968D919C9164
S11306D01397009719F0FD01DC01F7CF8D919C91E0
S11306E011979D012E5F3F4F820F931F209164014C
S11306F0309165012817390769F4309729F410926D
S113070067011092660102C013821282B0936501E0
S1130710A0936401DF91CF9108950F931F93CF931A
S1130720DF93009731F46115710519F480E090E0CE
S11307303AC08B01EC016EE070E081E090E00E9431
S1130740CF05FC01892B91F380E883830115110502
S113075071F01387028781E8838380916801909107
S11307606901892B21F4F0936901E09368012097D2
S1130770C9F0D187C08783818260838380916A01B5
S113078090916B01892B71F4F0936B01E0936A01F2
S113079080916C0190916D01892B21F4F0936D018E
S11307A0E0936C01CF01DF91CF911F910F910895D8
S11307B0A0E0B0E0EEEDF3E00C94B206AE014B5FC6
S11307C05F4FFA0161917191AF0180916A0190913B
S11307D06B010E94EE03E2E00C94CE06ABE0B0E0C5
S11307E0E4EFF3E00C94A2066C017B018A01FC01A6
S11307F017821682838181FFCCC1CE0101963C0110
S1130800F6019381F70193FD859193FF81917F0117
S1130810882309F4BAC1853239F493FD859193FF95
S113082081917F01853229F4B60190E00E94080687
S1130830E7CF912C212C312CFFE1F315D8F08B322A
S113084079F038F4803279F08332A1F4232D2061D9
S11308501DC08D3261F0803369F4232D216016C0F0
S1130860832D8260382EE32DE4603E2E2AC0F32DC2
S1130870F8601DC037FC2DC020ED280F2A3040F051
S11308808E32B9F436FC81C1232D2064322E19C076
S113089036FE06C08AE0989E200D1124922E11C0C7
S11308A0EAE02E9E200D1124222EF32DF0623F2E1D
S11308B008C08C3621F4832D8068382E02C0883617
S11308C041F4F70193FD859193FF81917F0181119B
S11308D0B3CF982F9F7D9554933028F40C5F1F4F0E
S11308E09FE399830DC0833631F0833771F08335EC
S11308F009F059C021C0F801808189830E5F1F4F20
S113090088248394912C530113C02801F2E04F0EE4
S1130910511CF801A080B18036FE03C0692D70E03F
S113092002C06FEF7FEFC5010E94FD054C018201FB
S1130930F32DFF773F2E16C0280122E0420E511CF2
S1130940F801A080B18036FE03C0692D70E002C0BA
S11309506FEF7FEFC5010E94EB054C01F32DF068AA
S11309603F2E820133FC1BC0822D90E0881699062D
S1130970B0F4B60180E290E00E9408062A94F4CF15
S1130980F50137FC859137FE81915F01B60190E056
S11309900E94080621102A9421E0821A91088114E9
S11309A0910471F7E8C0843611F0893641F5F801F5
S11309B037FE07C060817181828193810C5F1F4F74
S11309C008C060817181072E000C880B990B0E5FA3
S11309D01F4FF32DFF763F2E97FF09C0909580950A
S11309E0709561957F4F8F4F9F4FF0683F2E2AE09F
S11309F030E0A3010E944406882E861845C085373E
S1130A0031F4232D2F7EB22E2AE030E025C0932D21
S1130A10997FB92E8F36C1F018F4883579F0B5C0B6
S1130A20803719F0883721F0B0C0E92FE061BE2E7D
S1130A30B4FE0DC0FB2DF460BF2E09C034FE0AC005
S1130A40292F2660B22E06C028E030E005C020E140
S1130A5030E002C020E132E0F801B7FE07C0608157
S1130A607181828193810C5F1F4F06C06081718107
S1130A7080E090E00E5F1F4FA3010E944406882E81
S1130A808618FB2DFF773F2E36FE0DC0232D2E7FBB
S1130A90A22E891458F434FE0BC032FC09C0832DF5
S1130AA08E7EA82E05C0B82CA32C03C0B82C01C080
S1130AB0B92CA4FE0FC0FE01E80DF11D8081803326
S1130AC021F49A2D997EA92E09C0A2FE06C0B394E2
S1130AD0B39404C08A2D867809F0B394A3FC11C0A2
S1130AE0A0FE06C0B21488F4280C922C9B180EC0E9
S1130AF0B21460F4B60180E290E00E940806B39458
S1130B00F7CFB21418F42B1802C0982C212CA4FE91
S1130B1010C0B60180E390E00E940806A2FE17C050
S1130B20A1FC03C088E790E002C088E590E0B6012C
S1130B300CC08A2D867859F0A1FE02C08BE201C058
S1130B4080E2A7FC8DE2B60190E00E9408068914B9
S1130B5038F4B60180E390E00E9408069A94F7CF37
S1130B608A94F301E80DF11D8081B60190E00E94A2
S1130B7008068110F5CF222009F442CEB60180E2A6
S1130B8090E00E9408062A94F6CFF60186819781A8
S1130B9002C08FEF9FEF2B96E2E10C94BE060F93F9
S1130BA01F93CF93DF93869F8001879F100D969F9D
S1130BB0100D1124C8010E946C02EC01009729F069
S1130BC0A80160E070E00E94F605CE01DF91CF91AC
S1130BD01F910F910895FC01059061507040011020
S1130BE0D8F7809590958E0F9F1F0895DC0101C062
S1130BF06D9341505040E0F70895FC0161507040FE
S1130C0001900110D8F7809590958E0F9F1F08953D
S1130C100F931F93CF93DF93FB01238121FD03C027
S1130C208FEF9FEF2CC022FF16C04681578124818D
S1130C3035814217530744F4A081B1819D012F5F90
S1130C403F4F318320838C93268137812F5F3F4F21
S1130C503783268314C08B01EC01FB010084F185EA
S1130C60E02D0995892BE1F6D80116968D919C917A
S1130C701797019617969C938E931697CE01DF9142
S1130C80CF911F910F910895FA01AA27283051F1AD
S1130C90203181F1E8946F936E7F6E5F7F4F8F4FA9
S1130CA09F4FAF4FB1E03ED0B4E03CD0670F781F08
S1130CB0891F9A1FA11D680F791F8A1F911DA11DED
S1130CC06A0F711D811D911DA11D20D009F4689426
S1130CD03F912AE0269F11243019305D3193DEF6CE
S1130CE0CF010895462F4770405D4193B3E00FD084
S1130CF0C9F7F6CF462F4F70405D4A3318F0495D6F
S1130D0031FD4052419302D0A9F7EACFB4E0A69551
S1130D109795879577956795BA95C9F70097610573
S1130D20710508959B01AC010A2E069457954795C9
S1130D3037952795BA95C9F7620F731F841F951FBE
S1130D40A01D08952F923F924F925F926F927F92CF
S1130D508F929F92AF92BF92CF92DF92EF92FF92C7
S1130D600F931F93CF93DF93CDB7DEB7CA1BDB0B73
S1130D700FB6F894DEBF0FBECDBF09942A88398818
S1130D8048885F846E847D848C849B84AA84B9841F
S1130D90C884DF80EE80FD800C811B81AA81B9812B
S1130DA0CE0FD11D0FB6F894DEBF0FBECDBFED013F
S1090DB00895F894FFCF42
S1130DB600006E012000001068656C6C6F0073748F
S1130DC6617475732072656769737465722025642E
S1130DD6004D43503235313520657220696B6B65A1
S1130DE62069206B6F6E666967757261736A6F6ED0
S1130DF6736D6F64757320657474657220726573A0
S1130E0665742E2043414E535441543A202578208C
S1070E160D0A0000BD
S9030000FC
